{
  "contractName": "Casino",
  "abi": [
    {
      "constant": true,
      "inputs": [],
      "name": "numberOfBets",
      "outputs": [
        {
          "name": "",
          "type": "uint256"
        }
      ],
      "payable": false,
      "stateMutability": "view",
      "type": "function"
    },
    {
      "constant": true,
      "inputs": [],
      "name": "numberWinner",
      "outputs": [
        {
          "name": "",
          "type": "uint256"
        }
      ],
      "payable": false,
      "stateMutability": "view",
      "type": "function"
    },
    {
      "constant": true,
      "inputs": [],
      "name": "minimumBet",
      "outputs": [
        {
          "name": "",
          "type": "uint256"
        }
      ],
      "payable": false,
      "stateMutability": "view",
      "type": "function"
    },
    {
      "constant": true,
      "inputs": [
        {
          "name": "",
          "type": "uint256"
        }
      ],
      "name": "players",
      "outputs": [
        {
          "name": "",
          "type": "address"
        }
      ],
      "payable": false,
      "stateMutability": "view",
      "type": "function"
    },
    {
      "constant": true,
      "inputs": [],
      "name": "totalBet",
      "outputs": [
        {
          "name": "",
          "type": "uint256"
        }
      ],
      "payable": false,
      "stateMutability": "view",
      "type": "function"
    },
    {
      "inputs": [
        {
          "name": "_minimumBet",
          "type": "uint256"
        }
      ],
      "payable": false,
      "stateMutability": "nonpayable",
      "type": "constructor"
    },
    {
      "constant": true,
      "inputs": [
        {
          "name": "player",
          "type": "address"
        }
      ],
      "name": "checkPlayerExists",
      "outputs": [
        {
          "name": "",
          "type": "bool"
        }
      ],
      "payable": false,
      "stateMutability": "view",
      "type": "function"
    },
    {
      "constant": false,
      "inputs": [
        {
          "name": "numberToBet",
          "type": "uint256"
        }
      ],
      "name": "bet",
      "outputs": [],
      "payable": true,
      "stateMutability": "payable",
      "type": "function"
    },
    {
      "constant": false,
      "inputs": [],
      "name": "generateNumberWinner",
      "outputs": [],
      "payable": true,
      "stateMutability": "payable",
      "type": "function"
    },
    {
      "constant": false,
      "inputs": [
        {
          "name": "myid",
          "type": "bytes32"
        },
        {
          "name": "result",
          "type": "string"
        }
      ],
      "name": "__callback",
      "outputs": [],
      "payable": false,
      "stateMutability": "nonpayable",
      "type": "function"
    },
    {
      "constant": false,
      "inputs": [
        {
          "name": "_queryId",
          "type": "bytes32"
        },
        {
          "name": "_result",
          "type": "string"
        },
        {
          "name": "_proof",
          "type": "bytes"
        }
      ],
      "name": "__callback",
      "outputs": [],
      "payable": false,
      "stateMutability": "nonpayable",
      "type": "function"
    },
    {
      "constant": false,
      "inputs": [],
      "name": "distributePrizes",
      "outputs": [],
      "payable": false,
      "stateMutability": "nonpayable",
      "type": "function"
    }
  ],
  "bytecode": "0x608060405267016345785d8a00006006553480156200001d57600080fd5b50604051602080620047c08339810180604052810190808051906020019092919050505033600560006101000a81548173ffffffffffffffffffffffffffffffffffffffff021916908373ffffffffffffffffffffffffffffffffffffffff16021790555060008111156200009457806006819055505b620000d160307f010000000000000000000000000000000000000000000000000000000000000002620000d8640100000000026401000000009004565b5062000abc565b60008060009054906101000a900473ffffffffffffffffffffffffffffffffffffffff1673ffffffffffffffffffffffffffffffffffffffff1614806200015957506000620001576000809054906101000a900473ffffffffffffffffffffffffffffffffffffffff166200048c640100000000026401000000009004565b145b156200017c576200017a600062000497640100000000026401000000009004565b505b6000809054906101000a900473ffffffffffffffffffffffffffffffffffffffff1673ffffffffffffffffffffffffffffffffffffffff166338cc48316040518163ffffffff167c0100000000000000000000000000000000000000000000000000000000028152600401602060405180830381600087803b1580156200020257600080fd5b505af115801562000217573d6000803e3d6000fd5b505050506040513d60208110156200022e57600080fd5b810190808051906020019092919050505073ffffffffffffffffffffffffffffffffffffffff16600160009054906101000a900473ffffffffffffffffffffffffffffffffffffffff1673ffffffffffffffffffffffffffffffffffffffff161415156200039a576000809054906101000a900473ffffffffffffffffffffffffffffffffffffffff1673ffffffffffffffffffffffffffffffffffffffff166338cc48316040518163ffffffff167c0100000000000000000000000000000000000000000000000000000000028152600401602060405180830381600087803b1580156200031c57600080fd5b505af115801562000331573d6000803e3d6000fd5b505050506040513d60208110156200034857600080fd5b8101908080519060200190929190505050600160006101000a81548173ffffffffffffffffffffffffffffffffffffffff021916908373ffffffffffffffffffffffffffffffffffffffff1602179055505b600160009054906101000a900473ffffffffffffffffffffffffffffffffffffffff1673ffffffffffffffffffffffffffffffffffffffff1663688dcfd7826040518263ffffffff167c010000000000000000000000000000000000000000000000000000000002815260040180827effffffffffffffffffffffffffffffffffffffffffffffffffffffffffffff19167effffffffffffffffffffffffffffffffffffffffffffffffffffffffffffff19168152602001915050600060405180830381600087803b1580156200047057600080fd5b505af115801562000485573d6000803e3d6000fd5b5050505050565b6000813b9050919050565b600080620004c8731d3b2638a7cc9f2cb3d298a3da7a90b67e5506ed6200048c640100000000026401000000009004565b11156200057c57731d3b2638a7cc9f2cb3d298a3da7a90b67e5506ed6000806101000a81548173ffffffffffffffffffffffffffffffffffffffff021916908373ffffffffffffffffffffffffffffffffffffffff160217905550620005726040805190810160405280600b81526020017f6574685f6d61696e6e6574000000000000000000000000000000000000000000815250620009f1640100000000026401000000009004565b60019050620009ec565b6000620005ac73c03a2615d5efaf5f49f60b7bb6583eaec212fdf16200048c640100000000026401000000009004565b1115620006605773c03a2615d5efaf5f49f60b7bb6583eaec212fdf16000806101000a81548173ffffffffffffffffffffffffffffffffffffffff021916908373ffffffffffffffffffffffffffffffffffffffff160217905550620006566040805190810160405280600c81526020017f6574685f726f707374656e330000000000000000000000000000000000000000815250620009f1640100000000026401000000009004565b60019050620009ec565b60006200069073b7a07bcf2ba2f2703b24c0691b5278999c59ac7e6200048c640100000000026401000000009004565b1115620007445773b7a07bcf2ba2f2703b24c0691b5278999c59ac7e6000806101000a81548173ffffffffffffffffffffffffffffffffffffffff021916908373ffffffffffffffffffffffffffffffffffffffff1602179055506200073a6040805190810160405280600981526020017f6574685f6b6f76616e0000000000000000000000000000000000000000000000815250620009f1640100000000026401000000009004565b60019050620009ec565b60006200077473146500cfd35b22e4a392fe0adc06de1a1368ed486200048c640100000000026401000000009004565b1115620008285773146500cfd35b22e4a392fe0adc06de1a1368ed486000806101000a81548173ffffffffffffffffffffffffffffffffffffffff021916908373ffffffffffffffffffffffffffffffffffffffff1602179055506200081e6040805190810160405280600b81526020017f6574685f72696e6b656279000000000000000000000000000000000000000000815250620009f1640100000000026401000000009004565b60019050620009ec565b600062000858736f485c8bf6fc43ea212e93bbf8ce046c7f1cb4756200048c640100000000026401000000009004565b1115620008bd57736f485c8bf6fc43ea212e93bbf8ce046c7f1cb4756000806101000a81548173ffffffffffffffffffffffffffffffffffffffff021916908373ffffffffffffffffffffffffffffffffffffffff16021790555060019050620009ec565b6000620008ed7320e12a1f859b3feae5fb2a0a32c18f5a65555bbf6200048c640100000000026401000000009004565b111562000952577320e12a1f859b3feae5fb2a0a32c18f5a65555bbf6000806101000a81548173ffffffffffffffffffffffffffffffffffffffff021916908373ffffffffffffffffffffffffffffffffffffffff16021790555060019050620009ec565b6000620009827351efaf4c8b3c9afbd5ab9f4bbc82784ab6ef8faa6200048c640100000000026401000000009004565b1115620009e7577351efaf4c8b3c9afbd5ab9f4bbc82784ab6ef8faa6000806101000a81548173ffffffffffffffffffffffffffffffffffffffff021916908373ffffffffffffffffffffffffffffffffffffffff16021790555060019050620009ec565b600090505b919050565b806002908051906020019062000a0992919062000a0d565b5050565b828054600181600116156101000203166002900490600052602060002090601f016020900481019282601f1062000a5057805160ff191683800117855562000a81565b8280016001018555821562000a81579182015b8281111562000a8057825182559160200191906001019062000a63565b5b50905062000a90919062000a94565b5090565b62000ab991905b8082111562000ab557600081600090555060010162000a9b565b5090565b90565b613cf48062000acc6000396000f3006080604052600436106100af576000357c0100000000000000000000000000000000000000000000000000000000900463ffffffff1680630a50e361146100b457806327dc297e146100be5780632ca8c6d31461013557806338bbfa50146101605780634081d9161461021d5780637365870b146102785780637ce52eb6146102985780639a6a68e9146102af578063c38a8afd146102da578063f71d96cb14610305578063fe5e185314610372575b600080fd5b6100bc61039d565b005b3480156100ca57600080fd5b506101336004803603810190808035600019169060200190929190803590602001908201803590602001908080601f01602080910402602001604051908101604052809392919081815260200183838082843782019150505050505091929192905050506103c4565b005b34801561014157600080fd5b5061014a610407565b6040518082815260200191505060405180910390f35b34801561016c57600080fd5b5061021b6004803603810190808035600019169060200190929190803590602001908201803590602001908080601f0160208091040260200160405190810160405280939291908181526020018383808284378201915050505050509192919290803590602001908201803590602001908080601f016020809104026020016040519081016040528093929190818152602001838380828437820191505050505050919291929050505061040d565b005b34801561022957600080fd5b5061025e600480360381019080803573ffffffffffffffffffffffffffffffffffffffff1690602001909291905050506106f9565b604051808215151515815260200191505060405180910390f35b61029660048036038101908080359060200190929190505050610755565b005b3480156102a457600080fd5b506102ad61087c565b005b3480156102bb57600080fd5b506102c46109a0565b6040518082815260200191505060405180910390f35b3480156102e657600080fd5b506102ef6109a6565b6040518082815260200191505060405180910390f35b34801561031157600080fd5b50610330600480360381019080803590602001909291905050506109ac565b604051808273ffffffffffffffffffffffffffffffffffffffff1673ffffffffffffffffffffffffffffffffffffffff16815260200191505060405180910390f35b34801561037e57600080fd5b506103876109ea565b6040518082815260200191505060405180910390f35b600080600080600793506000925062030d4091506103bc8385846109f0565b905050505050565b610403828260006040519080825280601f01601f1916602001820160405280156103fd5781602001602082028038833980820191505090505b5061040d565b5050565b60085481565b82828260007f4c0000000000000000000000000000000000000000000000000000000000000082600081518110151561044257fe5b9060200101517f010000000000000000000000000000000000000000000000000000000000000090047f0100000000000000000000000000000000000000000000000000000000000000027effffffffffffffffffffffffffffffffffffffffffffffffffffffffffffff191614158061055757507f50000000000000000000000000000000000000000000000000000000000000008260018151811015156104e757fe5b9060200101517f010000000000000000000000000000000000000000000000000000000000000090047f0100000000000000000000000000000000000000000000000000000000000000027effffffffffffffffffffffffffffffffffffffffffffffffffffffffffffff191614155b80610600575060017f01000000000000000000000000000000000000000000000000000000000000000282600281518110151561059057fe5b9060200101517f010000000000000000000000000000000000000000000000000000000000000090047f0100000000000000000000000000000000000000000000000000000000000000027effffffffffffffffffffffffffffffffffffffffffffffffffffffffffffff191614155b1561060a57600080fd5b61061d828585610618610fb3565b611055565b905060001515811515141561063157600080fd5b610639611845565b73ffffffffffffffffffffffffffffffffffffffff163373ffffffffffffffffffffffffffffffffffffffff1614151561066f57fe5b6024866040518082805190602001908083835b6020831015156106a75780518252602082019150602081019050602083039250610682565b6001836020036101000a0380198251168184511680821785525050505050509050019150506040518091039020600190048115156106e157fe5b066009819055506106f061087c565b50505050505050565b600080600c60008473ffffffffffffffffffffffffffffffffffffffff1673ffffffffffffffffffffffffffffffffffffffff16815260200190815260200160002054111561074b5760019050610750565b600090505b919050565b60001515610762336106f9565b151514151561076d57fe5b6001811015801561077f5750600a8111155b151561078757fe5b600654341015151561079557fe5b80600c60003373ffffffffffffffffffffffffffffffffffffffff1673ffffffffffffffffffffffffffffffffffffffff16815260200190815260200160002081905550600b60008281526020019081526020016000203390806001815401808255809150509060018203906000526020600020016000909192909190916101000a81548173ffffffffffffffffffffffffffffffffffffffff021916908373ffffffffffffffffffffffffffffffffffffffff1602179055505060016008600082825401925050819055503460076000828254019250508190555061087961039d565b50565b60008060006002600754029250600091505b600b600060095481526020019081526020016000208054905082101561094e57600b60006009548152602001908152602001600020828154811015156108d057fe5b9060005260206000200160009054906101000a900473ffffffffffffffffffffffffffffffffffffffff1673ffffffffffffffffffffffffffffffffffffffff166108fc849081150290604051600060405180830381858888f19350505050158015610940573d6000803e3d6000fd5b50818060010192505061088e565b600190505b600a8111151561098b576000600b60008381526020019081526020016000208161097d9190613bb5565b508080600101915050610953565b60006007819055506000600881905550505050565b60095481565b60065481565b600a818154811015156109bb57fe5b906000526020600020016000915054906101000a900473ffffffffffffffffffffffffffffffffffffffff1681565b60075481565b600060608060606000606080610a04613be1565b6000606060008c1480610a17575060208c115b15610a2157600080fd5b600a8d029c5060016040519080825280601f01601f191660200182016040528015610a5b5781602001602082028038833980820191505090505b5098508b7f010000000000000000000000000000000000000000000000000000000000000002896000815181101515610a9057fe5b9060200101907effffffffffffffffffffffffffffffffffffffffffffffffffffffffffffff1916908160001a90535060206040519080825280601f01601f191660200182016040528015610af45781602001602082028038833980820191505090505b50975060206040519080825280601f01601f191660200182016040528015610b2b5781602001602082028038833980820191505090505b509650610b36611ba3565b95506020885242411860014303401860208901526020875285602088015260206040519080825280601f01601f191660200182016040528015610b885781602001602082028038833980820191505090505b5094508c602086015260086040519080825280601f01601f191660200182016040528015610bc55781602001602082028038833980820191505090505b509350610bd88560186008876000611f01565b506080604051908101604052808981526020018a8152602001888152602001868152509250610c3d6040805190810160405280600681526020017f72616e646f6d0000000000000000000000000000000000000000000000000000815250848d611f5f565b915060086040519080825280601f01601f191660200182016040528015610c735781602001602082028038833980820191505090505b50905060208401517f0100000000000000000000000000000000000000000000000000000000000000810460278301537e01000000000000000000000000000000000000000000000000000000000000810460268301537d010000000000000000000000000000000000000000000000000000000000810460258301537c0100000000000000000000000000000000000000000000000000000000810460248301537b01000000000000000000000000000000000000000000000000000000810460238301537a010000000000000000000000000000000000000000000000000000810460228301537901000000000000000000000000000000000000000000000000008104602183015378010000000000000000000000000000000000000000000000008104602083015350610fa08282856001600481101515610db457fe5b60200201516002876000600481101515610dca57fe5b60200201516040518082805190602001908083835b602083101515610e045780518252602082019150602081019050602083039250610ddf565b6001836020036101000a0380198251168184511680821785525050505050509050019150506020604051808303816000865af1158015610e48573d6000803e3d6000fd5b5050506040513d6020811015610e5d57600080fd5b8101908080519060200190929190505050876002600481101515610e7d57fe5b60200201516040518085805190602001908083835b602083101515610eb75780518252602082019150602081019050602083039250610e92565b6001836020036101000a03801982511681845116808217855250505050505090500184805190602001908083835b602083101515610f0a5780518252602082019150602081019050602083039250610ee5565b6001836020036101000a038019825116818451168082178552505050505050905001836000191660001916815260200182805190602001908083835b602083101515610f6b5780518252602082019150602081019050602083039250610f46565b6001836020036101000a0380198251168184511680821785525050505050509050019450505050506040518091039020612307565b8199505050505050505050509392505050565b606060028054600181600116156101000203166002900480601f01602080910402602001604051908101604052809291908181526020018280546001816001161561010002031660029004801561104b5780601f106110205761010080835404028352916020019161104b565b820191906000526020600020905b81548152906001019060200180831161102e57829003601f168201915b5050505050905090565b6000806060806060806000806060602060028e604581518110151561107657fe5b9060200101517f010000000000000000000000000000000000000000000000000000000000000090047f0100000000000000000000000000000000000000000000000000000000000000027f010000000000000000000000000000000000000000000000000000000000000090040160440101975060206040519080825280601f01601f19166020018201604052801561111f5781602001602082028038833980820191505090505b5096506111318d8960208a6000611f01565b5060028a8d6040518083805190602001908083835b60208310151561116b5780518252602082019150602081019050602083039250611146565b6001836020036101000a0380198251168184511680821785525050505050509050018260001916600019168152602001925050506020604051808303816000865af11580156111be573d6000803e3d6000fd5b5050506040513d60208110156111d357600080fd5b8101908080519060200190929190505050604051808260001916600019168152602001915050604051809103902060001916876040518082805190602001908083835b60208310151561123b5780518252602082019150602081019050602083039250611216565b6001836020036101000a03801982511681845116808217855250505050505090500191505060405180910390206000191614151561127c5760009850611835565b60028d600160498b010181518110151561129257fe5b9060200101517f010000000000000000000000000000000000000000000000000000000000000090047f0100000000000000000000000000000000000000000000000000000000000000027f01000000000000000000000000000000000000000000000000000000000000009004016040519080825280601f01601f1916602001820160405280156113335781602001602082028038833980820191505090505b5095506113488d60498a018851896000611f01565b506114766002876040518082805190602001908083835b602083101515611384578051825260208201915060208101905060208303925061135f565b6001836020036101000a0380198251168184511680821785525050505050509050019150506020604051808303816000865af11580156113c8573d6000803e3d6000fd5b5050506040513d60208110156113dd57600080fd5b81019080805190602001909291905050508c8f600860208d010181518110151561140357fe5b9060200101517f010000000000000000000000000000000000000000000000000000000000000090047f0100000000000000000000000000000000000000000000000000000000000000027f0100000000000000000000000000000000000000000000000000000000000000900461232f565b15156114855760009850611835565b60296040519080825280601f01601f1916602001820160405280156114b95781602001602082028038833980820191505090505b5094506114ce8d60208a016029886000611f01565b50604080519080825280601f01601f1916602001820160405280156115025781602001602082028038833980820191505090505b50935060418651602960208b0101010192506115268d604085036040876000611f01565b506002846040518082805190602001908083835b60208310151561155f578051825260208201915060208101905060208303925061153a565b6001836020036101000a0380198251168184511680821785525050505050509050019150506020604051808303816000865af11580156115a3573d6000803e3d6000fd5b5050506040513d60208110156115b857600080fd5b8101908080519060200190929190505050915084826040518083805190602001908083835b60208310151561160257805182526020820191506020810190506020830392506115dd565b6001836020036101000a038019825116818451168082178552505050505050905001826000191660001916815260200192505050604051809103902060001916600360008e600019166000191681526020019081526020016000205460001916141561168c57600360008d6000191660001916815260200190815260200160002060009055611695565b60009850611835565b60496040519080825280601f01601f1916602001820160405280156116c95781602001602082028038833980820191505090505b5090506116db8d896049846000611f01565b506117886002826040518082805190602001908083835b60208310151561171757805182526020820191506020810190506020830392506116f2565b6001836020036101000a0380198251168184511680821785525050505050509050019150506020604051808303816000865af115801561175b573d6000803e3d6000fd5b5050506040513d602081101561177057600080fd5b81019080805190602001909291905050508786612447565b15156117975760009850611835565b6000151560046000846000191660001916815260200190815260200160002060009054906101000a900460ff1615151415611809576117d68d84612774565b60046000846000191660001916815260200190815260200160002060006101000a81548160ff0219169083151502179055505b60046000836000191660001916815260200190815260200160002060009054906101000a900460ff1698505b5050505050505050949350505050565b6000806000809054906101000a900473ffffffffffffffffffffffffffffffffffffffff1673ffffffffffffffffffffffffffffffffffffffff1614806118b5575060006118b36000809054906101000a900473ffffffffffffffffffffffffffffffffffffffff16612cda565b145b156118c6576118c46000612ce5565b505b6000809054906101000a900473ffffffffffffffffffffffffffffffffffffffff1673ffffffffffffffffffffffffffffffffffffffff166338cc48316040518163ffffffff167c0100000000000000000000000000000000000000000000000000000000028152600401602060405180830381600087803b15801561194b57600080fd5b505af115801561195f573d6000803e3d6000fd5b505050506040513d602081101561197557600080fd5b810190808051906020019092919050505073ffffffffffffffffffffffffffffffffffffffff16600160009054906101000a900473ffffffffffffffffffffffffffffffffffffffff1673ffffffffffffffffffffffffffffffffffffffff16141515611add576000809054906101000a900473ffffffffffffffffffffffffffffffffffffffff1673ffffffffffffffffffffffffffffffffffffffff166338cc48316040518163ffffffff167c0100000000000000000000000000000000000000000000000000000000028152600401602060405180830381600087803b158015611a6157600080fd5b505af1158015611a75573d6000803e3d6000fd5b505050506040513d6020811015611a8b57600080fd5b8101908080519060200190929190505050600160006101000a81548173ffffffffffffffffffffffffffffffffffffffff021916908373ffffffffffffffffffffffffffffffffffffffff1602179055505b600160009054906101000a900473ffffffffffffffffffffffffffffffffffffffff1673ffffffffffffffffffffffffffffffffffffffff1663c281d19e6040518163ffffffff167c0100000000000000000000000000000000000000000000000000000000028152600401602060405180830381600087803b158015611b6357600080fd5b505af1158015611b77573d6000803e3d6000fd5b505050506040513d6020811015611b8d57600080fd5b8101908080519060200190929190505050905090565b6000806000809054906101000a900473ffffffffffffffffffffffffffffffffffffffff1673ffffffffffffffffffffffffffffffffffffffff161480611c1357506000611c116000809054906101000a900473ffffffffffffffffffffffffffffffffffffffff16612cda565b145b15611c2457611c226000612ce5565b505b6000809054906101000a900473ffffffffffffffffffffffffffffffffffffffff1673ffffffffffffffffffffffffffffffffffffffff166338cc48316040518163ffffffff167c0100000000000000000000000000000000000000000000000000000000028152600401602060405180830381600087803b158015611ca957600080fd5b505af1158015611cbd573d6000803e3d6000fd5b505050506040513d6020811015611cd357600080fd5b810190808051906020019092919050505073ffffffffffffffffffffffffffffffffffffffff16600160009054906101000a900473ffffffffffffffffffffffffffffffffffffffff1673ffffffffffffffffffffffffffffffffffffffff16141515611e3b576000809054906101000a900473ffffffffffffffffffffffffffffffffffffffff1673ffffffffffffffffffffffffffffffffffffffff166338cc48316040518163ffffffff167c0100000000000000000000000000000000000000000000000000000000028152600401602060405180830381600087803b158015611dbf57600080fd5b505af1158015611dd3573d6000803e3d6000fd5b505050506040513d6020811015611de957600080fd5b8101908080519060200190929190505050600160006101000a81548173ffffffffffffffffffffffffffffffffffffffff021916908373ffffffffffffffffffffffffffffffffffffffff1602179055505b600160009054906101000a900473ffffffffffffffffffffffffffffffffffffffff1673ffffffffffffffffffffffffffffffffffffffff1663abaa5f3e6040518163ffffffff167c0100000000000000000000000000000000000000000000000000000000028152600401602060405180830381600087803b158015611ec157600080fd5b505af1158015611ed5573d6000803e3d6000fd5b505050506040513d6020811015611eeb57600080fd5b8101908080519060200190929190505050905090565b6060600080600084870192508286511015611f1b57600080fd5b8760200191508460200190505b868860200101821015611f505781890151808288015250602082019150602081019050611f28565b85935050505095945050505050565b6000606060008060009054906101000a900473ffffffffffffffffffffffffffffffffffffffff1673ffffffffffffffffffffffffffffffffffffffff161480611fd257506000611fd06000809054906101000a900473ffffffffffffffffffffffffffffffffffffffff16612cda565b145b15611fe357611fe16000612ce5565b505b6000809054906101000a900473ffffffffffffffffffffffffffffffffffffffff1673ffffffffffffffffffffffffffffffffffffffff166338cc48316040518163ffffffff167c0100000000000000000000000000000000000000000000000000000000028152600401602060405180830381600087803b15801561206857600080fd5b505af115801561207c573d6000803e3d6000fd5b505050506040513d602081101561209257600080fd5b810190808051906020019092919050505073ffffffffffffffffffffffffffffffffffffffff16600160009054906101000a900473ffffffffffffffffffffffffffffffffffffffff1673ffffffffffffffffffffffffffffffffffffffff161415156121fa576000809054906101000a900473ffffffffffffffffffffffffffffffffffffffff1673ffffffffffffffffffffffffffffffffffffffff166338cc48316040518163ffffffff167c0100000000000000000000000000000000000000000000000000000000028152600401602060405180830381600087803b15801561217e57600080fd5b505af1158015612192573d6000803e3d6000fd5b505050506040513d60208110156121a857600080fd5b8101908080519060200190929190505050600160006101000a81548173ffffffffffffffffffffffffffffffffffffffff021916908373ffffffffffffffffffffffffffffffffffffffff1602179055505b600460405190808252806020026020018201604052801561222f57816020015b606081526020019060019003908161221a5790505b50905083600060048110151561224157fe5b602002015181600081518110151561225557fe5b9060200190602002018190525083600160048110151561227157fe5b602002015181600181518110151561228557fe5b906020019060200201819052508360026004811015156122a157fe5b60200201518160028151811015156122b557fe5b906020019060200201819052508360036004811015156122d157fe5b60200201518160038151811015156122e557fe5b906020019060200201819052506122fd858285613176565b9150509392505050565b8060036000846000191660001916815260200190815260200160002081600019169055505050565b60008060006001915083855114151561234757600080fd5b600090505b8381101561243b57848181518110151561236257fe5b9060200101517f010000000000000000000000000000000000000000000000000000000000000090047f0100000000000000000000000000000000000000000000000000000000000000027effffffffffffffffffffffffffffffffffffffffffffffffffffffffffffff191686826020811015156123dd57fe5b1a7f0100000000000000000000000000000000000000000000000000000000000000027effffffffffffffffffffffffffffffffffffffffffffffffffffffffffffff191614151561242e57600091505b808060010191505061234c565b81925050509392505050565b600080600080600060606000606060206040519080825280601f01601f1916602001820160405280156124895781602001602082028038833980820191505090505b50925060208a600381518110151561249d57fe5b9060200101517f010000000000000000000000000000000000000000000000000000000000000090047f0100000000000000000000000000000000000000000000000000000000000000027f010000000000000000000000000000000000000000000000000000000000000090040360040191506125208a836020866000611f01565b925060206040519080825280601f01601f1916602001820160405280156125565781602001602082028038833980820191505090505b5090506022820191506125f18a60208c6001860381518110151561257657fe5b9060200101517f010000000000000000000000000000000000000000000000000000000000000090047f0100000000000000000000000000000000000000000000000000000000000000027f010000000000000000000000000000000000000000000000000000000000000090040384016020846000611f01565b9050602083015194506020810151935061260e8b601b8787613734565b80975081985050508573ffffffffffffffffffffffffffffffffffffffff16896040518082805190602001908083835b602083101515612663578051825260208201915060208101905060208303925061263e565b6001836020036101000a03801982511681845116808217855250505050505090500191505060405180910390206001900473ffffffffffffffffffffffffffffffffffffffff1614156126b95760019750612766565b6126c68b601c8787613734565b80975081985050508573ffffffffffffffffffffffffffffffffffffffff16896040518082805190602001908083835b60208310151561271b57805182526020820191506020810190506020830392506126f6565b6001836020036101000a03801982511681845116808217855250505050505090500191505060405180910390206001900473ffffffffffffffffffffffffffffffffffffffff161497505b505050505050509392505050565b600080606080606080606080606060028b60018c0181518110151561279557fe5b9060200101517f010000000000000000000000000000000000000000000000000000000000000090047f0100000000000000000000000000000000000000000000000000000000000000027f01000000000000000000000000000000000000000000000000000000000000009004016040519080825280601f01601f1916602001820160405280156128365781602001602082028038833980820191505090505b5096506128488b8b89518a6000611f01565b50604080519080825280601f01601f19166020018201604052801561287c5781602001602082028038833980820191505090505b50955061288f8b60046040896000611f01565b5060626040519080825280601f01601f1916602001820160405280156128c45781602001602082028038833980820191505090505b50945060017f0100000000000000000000000000000000000000000000000000000000000000028560008151811015156128fa57fe5b9060200101907effffffffffffffffffffffffffffffffffffffffffffffffffffffffffffff1916908160001a90535061293c8b60418c036041886001611f01565b506040805190810160405280602081526020017ffd94fa71bc0ba10d39d464d0d8f465efeef0a2764e3887fcc9df41ded20f505c81525093506129858460006020886042611f01565b50612a326002866040518082805190602001908083835b6020831015156129c1578051825260208201915060208101905060208303925061299c565b6001836020036101000a0380198251168184511680821785525050505050509050019150506020604051808303816000865af1158015612a05573d6000803e3d6000fd5b5050506040513d6020811015612a1a57600080fd5b81019080805190602001909291905050508888612447565b9750600015158815151415612a4a5760009850612ccc565b606060405190810160405280604081526020017f7fb956469c5c9b89840d55b43537e66a98dd4811ea0a27224272c2e5622911e881526020017f537a2f8e86a46baec82864e98dd01e9ccc2f8bc5dfc9cbe5a91a290498dd96e4815250925060426040519080825280601f01601f191660200182016040528015612add5781602001602082028038833980820191505090505b50915060fe7f010000000000000000000000000000000000000000000000000000000000000002826000815181101515612b1357fe5b9060200101907effffffffffffffffffffffffffffffffffffffffffffffffffffffffffffff1916908160001a905350612b538b60036041856001611f01565b5060028b6045815181101515612b6557fe5b9060200101517f010000000000000000000000000000000000000000000000000000000000000090047f0100000000000000000000000000000000000000000000000000000000000000027f01000000000000000000000000000000000000000000000000000000000000009004016040519080825280601f01601f191660200182016040528015612c065781602001602082028038833980820191505090505b509050612c198b60448351846000611f01565b50612cc66002836040518082805190602001908083835b602083101515612c555780518252602082019150602081019050602083039250612c30565b6001836020036101000a0380198251168184511680821785525050505050509050019150506020604051808303816000865af1158015612c99573d6000803e3d6000fd5b5050506040513d6020811015612cae57600080fd5b81019080805190602001909291905050508285612447565b97508798505b505050505050505092915050565b6000813b9050919050565b600080612d05731d3b2638a7cc9f2cb3d298a3da7a90b67e5506ed612cda565b1115612da657731d3b2638a7cc9f2cb3d298a3da7a90b67e5506ed6000806101000a81548173ffffffffffffffffffffffffffffffffffffffff021916908373ffffffffffffffffffffffffffffffffffffffff160217905550612d9d6040805190810160405280600b81526020017f6574685f6d61696e6e6574000000000000000000000000000000000000000000815250613778565b60019050613171565b6000612dc573c03a2615d5efaf5f49f60b7bb6583eaec212fdf1612cda565b1115612e665773c03a2615d5efaf5f49f60b7bb6583eaec212fdf16000806101000a81548173ffffffffffffffffffffffffffffffffffffffff021916908373ffffffffffffffffffffffffffffffffffffffff160217905550612e5d6040805190810160405280600c81526020017f6574685f726f707374656e330000000000000000000000000000000000000000815250613778565b60019050613171565b6000612e8573b7a07bcf2ba2f2703b24c0691b5278999c59ac7e612cda565b1115612f265773b7a07bcf2ba2f2703b24c0691b5278999c59ac7e6000806101000a81548173ffffffffffffffffffffffffffffffffffffffff021916908373ffffffffffffffffffffffffffffffffffffffff160217905550612f1d6040805190810160405280600981526020017f6574685f6b6f76616e0000000000000000000000000000000000000000000000815250613778565b60019050613171565b6000612f4573146500cfd35b22e4a392fe0adc06de1a1368ed48612cda565b1115612fe65773146500cfd35b22e4a392fe0adc06de1a1368ed486000806101000a81548173ffffffffffffffffffffffffffffffffffffffff021916908373ffffffffffffffffffffffffffffffffffffffff160217905550612fdd6040805190810160405280600b81526020017f6574685f72696e6b656279000000000000000000000000000000000000000000815250613778565b60019050613171565b6000613005736f485c8bf6fc43ea212e93bbf8ce046c7f1cb475612cda565b111561306857736f485c8bf6fc43ea212e93bbf8ce046c7f1cb4756000806101000a81548173ffffffffffffffffffffffffffffffffffffffff021916908373ffffffffffffffffffffffffffffffffffffffff16021790555060019050613171565b60006130877320e12a1f859b3feae5fb2a0a32c18f5a65555bbf612cda565b11156130ea577320e12a1f859b3feae5fb2a0a32c18f5a65555bbf6000806101000a81548173ffffffffffffffffffffffffffffffffffffffff021916908373ffffffffffffffffffffffffffffffffffffffff16021790555060019050613171565b60006131097351efaf4c8b3c9afbd5ab9f4bbc82784ab6ef8faa612cda565b111561316c577351efaf4c8b3c9afbd5ab9f4bbc82784ab6ef8faa6000806101000a81548173ffffffffffffffffffffffffffffffffffffffff021916908373ffffffffffffffffffffffffffffffffffffffff16021790555060019050613171565b600090505b919050565b600080606060008060009054906101000a900473ffffffffffffffffffffffffffffffffffffffff1673ffffffffffffffffffffffffffffffffffffffff1614806131ea575060006131e86000809054906101000a900473ffffffffffffffffffffffffffffffffffffffff16612cda565b145b156131fb576131f96000612ce5565b505b6000809054906101000a900473ffffffffffffffffffffffffffffffffffffffff1673ffffffffffffffffffffffffffffffffffffffff166338cc48316040518163ffffffff167c0100000000000000000000000000000000000000000000000000000000028152600401602060405180830381600087803b15801561328057600080fd5b505af1158015613294573d6000803e3d6000fd5b505050506040513d60208110156132aa57600080fd5b810190808051906020019092919050505073ffffffffffffffffffffffffffffffffffffffff16600160009054906101000a900473ffffffffffffffffffffffffffffffffffffffff1673ffffffffffffffffffffffffffffffffffffffff16141515613412576000809054906101000a900473ffffffffffffffffffffffffffffffffffffffff1673ffffffffffffffffffffffffffffffffffffffff166338cc48316040518163ffffffff167c0100000000000000000000000000000000000000000000000000000000028152600401602060405180830381600087803b15801561339657600080fd5b505af11580156133aa573d6000803e3d6000fd5b505050506040513d60208110156133c057600080fd5b8101908080519060200190929190505050600160006101000a81548173ffffffffffffffffffffffffffffffffffffffff021916908373ffffffffffffffffffffffffffffffffffffffff1602179055505b600160009054906101000a900473ffffffffffffffffffffffffffffffffffffffff1673ffffffffffffffffffffffffffffffffffffffff16632ef3accc87866040518363ffffffff167c01000000000000000000000000000000000000000000000000000000000281526004018080602001838152602001828103825284818151815260200191508051906020019080838360005b838110156134c35780820151818401526020810190506134a8565b50505050905090810190601f1680156134f05780820380516001836020036101000a031916815260200191505b509350505050602060405180830381600087803b15801561351057600080fd5b505af1158015613524573d6000803e3d6000fd5b505050506040513d602081101561353a57600080fd5b81019080805190602001909291905050509150833a02670de0b6b3a76400000182111561356d576000600102925061372b565b61357685613792565b9050600160009054906101000a900473ffffffffffffffffffffffffffffffffffffffff1673ffffffffffffffffffffffffffffffffffffffff1663c55c1cb68360008985896040518663ffffffff167c0100000000000000000000000000000000000000000000000000000000028152600401808581526020018060200180602001848152602001838103835286818151815260200191508051906020019080838360005b8381101561363757808201518184015260208101905061361c565b50505050905090810190601f1680156136645780820380516001836020036101000a031916815260200191505b50838103825285818151815260200191508051906020019080838360005b8381101561369d578082015181840152602081019050613682565b50505050905090810190601f1680156136ca5780820380516001836020036101000a031916815260200191505b5096505050505050506020604051808303818588803b1580156136ec57600080fd5b505af1158015613700573d6000803e3d6000fd5b50505050506040513d602081101561371757600080fd5b810190808051906020019092919050505092505b50509392505050565b60008060008060405188815287602082015286604082015285606082015260208160808360006001610bb8f192508051915050818193509350505094509492505050565b806002908051906020019061378e929190613c09565b5050565b606061379c613c89565b60006137aa8261040061380f565b6137b382613855565b600090505b83518110156137f8576137eb84828151811015156137d257fe5b906020019060200201518361386390919063ffffffff16565b80806001019150506137b8565b61380182613888565b816000015192505050919050565b600060208281151561381d57fe5b0614151561383a5760208181151561383157fe5b06602003810190505b80826020018181525050604051808352818101604052505050565b613860816004613896565b50565b61387082600283516138ba565b6138838183613a1390919063ffffffff16565b505050565b613893816007613896565b50565b6138b6601f6138a6836005613abf565b1783613acf90919063ffffffff16565b5050565b6017811115156138eb576138e6816138d3846005613abf565b60ff161784613acf90919063ffffffff16565b613a0e565b60ff81111515613931576139156018613905846005613abf565b1784613acf90919063ffffffff16565b61392b81600185613b0f9092919063ffffffff16565b50613a0d565b61ffff811115156139785761395c601961394c846005613abf565b1784613acf90919063ffffffff16565b61397281600285613b0f9092919063ffffffff16565b50613a0c565b63ffffffff811115156139c1576139a5601a613995846005613abf565b1784613acf90919063ffffffff16565b6139bb81600485613b0f9092919063ffffffff16565b50613a0b565b67ffffffffffffffff81111515613a0a576139f2601b6139e2846005613abf565b1784613acf90919063ffffffff16565b613a0881600885613b0f9092919063ffffffff16565b505b5b5b5b5b505050565b613a1b613c89565b60008060008086602001518760000151518751011115613a5157613a50876002613a4a8a602001518a51613b76565b02613b92565b5b8551915086518051602081830101955087518101825260208801945050505b602082101515613a955782518452602084019350602083019250602082039150613a70565b6001826020036101000a039050801983511681855116818117865250508694505050505092915050565b60008160020a8302905092915050565b81602001516001836000015151011115613af557613af4826002846020015102613b92565b5b815180516020818301018381536001820183525050505050565b613b17613c89565b6000846020015185600001515184011115613b4757613b46856002613b40886020015187613b76565b02613b92565b5b6001836101000a0390508451805184818301018684198251161781528582018352505050849150509392505050565b600081831115613b8857829050613b8c565b8190505b92915050565b606082600001519050613ba5838361380f565b613baf8382613a13565b50505050565b815481835581811115613bdc57818360005260206000209182019101613bdb9190613ca3565b5b505050565b6080604051908101604052806004905b6060815260200190600190039081613bf15790505090565b828054600181600116156101000203166002900490600052602060002090601f016020900481019282601f10613c4a57805160ff1916838001178555613c78565b82800160010185558215613c78579182015b82811115613c77578251825591602001919060010190613c5c565b5b509050613c859190613ca3565b5090565b604080519081016040528060608152602001600081525090565b613cc591905b80821115613cc1576000816000905550600101613ca9565b5090565b905600a165627a7a723058208d99edc9b09f6fd362745e929bb732643d065bbbdba836162bb5bd12cf855f130029",
  "source": "pragma solidity ^0.4.11;\n\n//import \"github.com/oraclize/ethereum-api/oraclizeAPI.sol\";\nimport \"./oraclizeAPI.sol\";\n\n/// @title Contract to bet Ether for a number and win randomly when the number of bets is met.\n/// @author Merunas Grincalaitis\ncontract Casino is usingOraclize {\n    address owner;\n\n    // The minimum bet a user has to make to participate in the game\n    uint public minimumBet = 100 finney; // Equal to 0.1 ether\n\n    // The total amount of Ether bet for this current game\n    uint public totalBet;\n\n    // The total number of bets the users have made\n    uint public numberOfBets;\n\n    // The number that won the last game\n    uint public numberWinner;\n\n    // Array of players\n    address[] public players;\n\n    // Each number has an array of players. Associate each number with a bunch of players\n    mapping(uint => address[]) numberBetPlayers;\n\n    // The number that each player has bet for\n    mapping(address => uint) playerBetsNumber;\n\n    // Modifier to only allow the execution of functions when the bets are completed\n    modifier onEndGame(){\n        _;\n    }\n\n    /// @notice Constructor that's used to configure the minimum bet per game\n    /// @param _minimumBet The minimum bet that each user has to make in order to participate in the game\n    function Casino(uint _minimumBet){\n        owner = msg.sender;\n\n        if (_minimumBet > 0) minimumBet = _minimumBet;\n\n        // Set the proof of oraclize in order to make secure random number generations\n        oraclize_setProof(proofType_Ledger);\n    }\n\n    /// @notice Check if a player exists in the current game\n    /// @param player The address of the player to check\n    /// @return bool Returns true is it exists or false if it doesn't\n    function checkPlayerExists(address player) constant returns (bool){\n        if (playerBetsNumber[player] > 0)\n            return true;\n        else\n            return false;\n    }\n\n    /// @notice To bet for a number by sending Ether\n    /// @param numberToBet The number that the player wants to bet for. Must be between 1 and 10 both inclusive\n    function bet(uint numberToBet) payable {\n\n        // Check that the player doesn't exists\n        assert(checkPlayerExists(msg.sender) == false);\n\n        // Check that the number to bet is within the range\n        assert(numberToBet >= 1 && numberToBet <= 10);\n\n        // Check that the amount paid is bigger or equal the minimum bet\n        assert(msg.value >= minimumBet);\n\n        // Set the number bet for that player\n        playerBetsNumber[msg.sender] = numberToBet;\n\n        // The player msg.sender has bet for that number\n        numberBetPlayers[numberToBet].push(msg.sender);\n\n        numberOfBets += 1;\n        totalBet += msg.value;\n\n        generateNumberWinner();\n    }\n\n    /// @notice Generates a random number between 1 and 10 both inclusive.\n    /// Must be payable because oraclize needs gas to generate a random number.\n    /// Can only be executed when the game ends.\n    function generateNumberWinner() payable onEndGame {\n        uint numberRandomBytes = 7;\n        uint delay = 0;\n        uint callbackGas = 200000;\n\n        bytes32 queryId = oraclize_newRandomDSQuery(delay, numberRandomBytes, callbackGas);\n    }\n\n    /// @notice Callback function that gets called by oraclize when the random number is generated\n    /// @param _queryId The query id that was generated to proofVerify\n    /// @param _result String that contains the number generated\n    /// @param _proof A string with a proof code to verify the authenticity of the number generation\n    function __callback(bytes32 _queryId, string _result, bytes _proof) oraclize_randomDS_proofVerify(_queryId, _result, _proof) onEndGame {\n\n        // Checks that the sender of this callback was in fact oraclize\n        assert(msg.sender == oraclize_cbAddress());\n\n        numberWinner = (uint(sha3(_result)) % 36);\n        distributePrizes();\n    }\n\n    /// @notice Sends the corresponding Ether to each winner then deletes all the\n    /// players for the next game and resets the `totalBet` and `numberOfBets`\n    function distributePrizes() onEndGame {\n        uint winnerEtherAmount = totalBet * 2;\n        // How much each winner gets\n\n        // Loop through all the winners to send the corresponding prize for each one\n        for (uint i = 0; i < numberBetPlayers[numberWinner].length; i++) {\n            numberBetPlayers[numberWinner][i].transfer(winnerEtherAmount);\n        }\n\n        // Delete all the players for each number\n        for (uint j = 1; j <= 10; j++) {\n            numberBetPlayers[j].length = 0;\n        }\n\n        totalBet = 0;\n        numberOfBets = 0;\n    }\n}\n",
  "sourcePath": "/home/daniel/PhpstormProjects/Roulette-Ethereum/contracts/Casino.sol",
  "compiler": {
    "name": "solc",
    "version": "0.4.23+commit.124ca40d.Emscripten.clang"
  },
  "schemaVersion": "2.0.0",
  "updatedAt": "2018-05-18T07:33:27.492Z"
}